:020000040800F2
:100000000000022039290008812800088328000800
:1000100085280008872800088928000800000000BB
:100020000000000000000000000000008B28000815
:100030008D280008000000008F2800089128000883
:1000400089290008892900088929000889290008C8
:1000500089290008892900088929000889290008B8
:1000600089290008892900088929000889290008A8
:100070008929000889290008892900088929000898
:100080008929000889290008892900088929000888
:100090008929000889290008892900088929000878
:1000A0008929000889290008892900088929000868
:1000B0008929000889290008892900088929000858
:1000C0008929000889290008892900088929000848
:1000D0008929000899280008892900088929000829
:1000E0008929000889290008892900088929000828
:1000F0008929000889290008892900088929000818
:100100008929000889290008892900088929000807
:1001100089290008892900088929000889290008F7
:100120008929000889290008A128000889290008D0
:10013000892900080000000000000000892900084B
:1001400089290008892900088929000889290008C7
:100150008929000889290008B12800088929000890
:1001600089290008892900088929000889290008A7
:10017000892900088929000800000000000000000B
:08018000892900088929000803
:1001880010B5054C237833B9044B13B10448AFF3C9
:1001980000800123237010BD7000002000000000C3
:1001A800E02B00080C4B43B10C480D4910B5AFF3D8
:1001B80000800C48036823B910BD0A48036833B9A6
:1001C8007047094B002BF7D0BDE810401847064B85
:1001D800002BF5D0184700BF00000000E02B0008F6
:1001E80074000020700000200000000053B94AB9D4
:1001F800002908BF00281CBF4FF0FF314FF0FF3027
:1002080000F07AB9ADF1080C6DE904CE00F006F8FB
:10021800DDF804E0DDE9022304B070472DE9F0477A
:100228008C460D460446089E002B51D18A4217463B
:100238006DD9B2FA82FEBEF1000F0BD0CEF1200CC0
:1002480001FA0EF520FA0CFC02FA0EF74CEA050C3E
:1002580000FA0EF44FEA174A250CBCFBFAF81FFA0D
:1002680087F90AFB18CC45EA0C4508FB09F3AB42B1
:100278000AD9ED1908F1FF3280F02381AB4240F230
:100288002081A8F102083D44ED1AA4B2B5FBFAF0AA
:100298000AFB105544EA054400FB09F9A14509D9B0
:1002A800E41900F1FF3380F00A81A14540F207818B
:1002B80002383C44A4EB090440EA08400021002E1F
:1002C80061D024FA0EF4002334607360BDE8F0872F
:1002D8008B4207D9002E54D0002186E82100084619
:1002E800BDE8F087B3FA83F1002940F08E80AB4275
:1002F80002D3824200F2FA80841A65EB03050120DA
:10030800AC46002E3FD086E81010BDE8F08712B941
:100318000127B7FBF2F7B7FA87FEBEF1000F34D119
:10032800EB1B3A0C1FFA87FC0121B3FBF2F8250CF2
:1003380002FB183345EA03450CFB08F3AB4207D927
:10034800ED1908F1FF3002D2AB4200F2D1808046AD
:10035800ED1AA3B2B5FBF2F002FB105543EA0544CF
:100368000CFB00FCA44507D9E41900F1FF3302D2C5
:10037800A44500F2B8801846A4EB0C0440EA0840F3
:100388009DE731463046BDE8F087CEF1200405FAF6
:100398000EF307FA0EF720FA04F83A0C25FA04F4DB
:1003A80048EA0308B4FBF2F14FEA184502FB11448E
:1003B8001FFA87FC45EA044501FB0CF3AB4200FA3F
:1003C8000EF409D9ED1901F1FF3080F08A80AB42B3
:1003D80040F2878002393D44EB1A1FFA88F5B3FBD7
:1003E800F2F002FB103345EA034500FB0CF3AB4285
:1003F80007D9ED1900F1FF386FD2AB426DD9023839
:100408003D44EB1A40EA01418FE7C1F1200722FA87
:1004180007F88B4005FA01F448EA030320FA07FEBF
:100428004FEA134CFD404EEA040EB5FBFCF94FEAC7
:100438001E440CFB19551FFA83F844EA054509FBCD
:1004480008F4AC4202FA01F200FA01FA08D9ED18F0
:1004580009F1FF3043D2AC4241D9A9F102091D4448
:100468002D1B1FFA8EFEB5FBFCF00CFB10554EEA57
:10047800054400FB08F8A04507D9E41800F1FF354A
:1004880029D2A04527D902381C4440EA0940A4EBE8
:100498000804A0FB02894C45C6464D4615D312D028
:1004A80056B1BAEB0E0364EB050404FA07F7CB4028
:1004B8001F43CC40376074600021BDE8F0871846C0
:1004C800F8E69046E0E6C245EAD2B8EB020E69EBE0
:1004D80003050138E4E72846D7E7404691E7814617
:1004E800BEE7014678E702383C4445E7084608E796
:1004F800A8F102083D442BE7704700BF10B5044639
:100508000E4B18784FF47A73B3FBF0F30C4A10686B
:10051800B0FBF3F000F022FA68B90F2C01D90120E2
:1005280010BD002221464FF0FF3000F0D7F9034BF1
:100538005C60002010BD012010BD00BF000000203D
:100548000800002008B50B4B1A6842F400721A60C4
:100558001A6842F480621A601A6842F480721A605B
:10056800032000F0A9F90020FFF7C8FF02F036F8D1
:10057800002008BD003C0240034A1168034B1B7869
:100588000B441360704700BFE80200200000002001
:10059800014B1868704700BFE80200204A4B5A68B0
:1005A80022F440325A605A6841680A435A60026825
:1005B800536823F48073536002685368016943EAFF
:1005C800012353600268536823F040735360026844
:1005D800536881680B4353600268936823F400638F
:1005E800936002689368C1680B439360826A374BD3
:1005F8009A424BD00268936823F070639360026854
:100608009368816A0B4393600268936823F04053B0
:10061800936002689368C16A0B43936002689368A9
:1006280023F00203936002689368017E43EA410362
:10063800936090F82030002B33D10268536823F47C
:10064800006353600268D36A23F47003D3620168BD
:10065800CB6AC269013A43EA0253CB6202689368E3
:1006680023F4007393600268936890F8301043EAAB
:10067800412393600268936823F48063936002685F
:100688009368416943EA81239360704702689368DD
:1006980023F0706393600268936823F0405393607B
:1006A800BCE70268536843F4006353600268536808
:1006B80023F46043536001684B68426A013A43EA95
:1006C80042334B60BEE700BF002301400100000F2A
:1006D80038B310B50446036C43B1236C13F0100F04
:1006E8000BD00120002384F83C3010BD01F092FFAC
:1006F8000023636484F83C30EFE7236C23F48853C9
:1007080023F0020343F0020323642046FFF746FF69
:1007180000206064236C23F0030343F00103236487
:10072800E0E701207047000030B482B00023019355
:1007380090F83C30012B00F0B780012380F83C3062
:100748000B68092B3ED90568EA689BB203EB4303A3
:100758001E3B072404FA03F322EA0303EB6005684F
:10076800EA688C680B8803EB43031E3B04FA03F327
:100778001343EB604B68062B3AD805686A6B03EBAA
:100788008303053B1F2404FA03F322EA03036B6384
:1007980005686A6B4B6803EB8303053B0C8804FA16
:1007A80003F313436B630268404B9A4250D00268CC
:1007B8003E4B9A4255D0002380F83C30184602B090
:1007C80030BC704705682A699BB203EB43030724D2
:1007D80004FA03F322EA03032B6105682A698C688B
:1007E8000B8803EB430304FA03F313432B61C1E7BC
:1007F8000C2B16D805682A6B03EB8303233B1F24B5
:1008080004FA03F322EA03032B6305682A6B4B6897
:1008180003EB8303233B0C8804FA03F313432B6392
:10082800C1E70568EA6A03EB8303413B1F2404FA26
:1008380003F322EA0303EB620568EA6A4B6803EBF9
:100848008303413B0C8804FA03F31343EB62AAE7E2
:100858000B68122BABD1164A536843F480035360DC
:10086800A5E70B68103B012BA5D8114A536843F440
:10087800000353600B68102B9DD10E4B1B6802F1CF
:10088800467202F52E3202F28332A2FB03239B0C3E
:1008980003EB83035A00019202E0019B013B0193A1
:1008A800019B002BF9D186E7022088E70020014050
:1008B8000023014008000020074AD36823F4E063BE
:1008C8001B041B0C000200F4E060184340F0BF60FA
:1008D80040F40030D060704700ED00E030B4164BB3
:1008E800DB68C3F30223C3F10704042C28BF0424E4
:1008F8001D1D062D17D9033B012505FA04F4013CFB
:100908002140994005FA03F3013B1340194300289D
:100918000BDB0901C9B200F1604000F5614080F8C5
:10092800001330BC70470023E6E700F00F00090110
:10093800C9B2024B1954F4E700ED00E014ED00E0F1
:10094800002808DB420900F01F00012303FA00F029
:10095800014B43F82200704700E100E00138B0F194
:10096800807F0AD2064B5860F021064A82F823108D
:100978000020986007221A6070470120704700BF66
:1009880010E000E000ED00E030B405682C6824F4C5
:1009980080242C60046863608368402B05D003685A
:1009A80099600368DA6030BC704703689A6003682E
:1009B800D960F8E70268D3B2103B0B49A1FB0313D7
:1009C8001B090A49C95CC165032B06D822F47F724A
:1009D80022F003028265806D704722F47F7222F054
:1009E800030204328265F6E7ABAAAAAAF82B00082C
:1009F800836A826992B9012B0AD01BB1022B01D0FC
:100A080000207047C36A13F0807F2CD10020704704
:100A1800C36AB3F1C07F28D000207047B2F5005FE9
:100A280005D0022B29D9032B15D000207047032BA2
:100A380003D8DFE803F01C041C0A00207047C36ACF
:100A480013F0807F15D100207047C36AB3F1C07FCF
:100A580011D000207047C36A13F0807F01D00120B5
:100A6800704700207047012070470120704701201F
:100A7800704701207047012070470120704700002F
:100A880070B50446FFF784FD002C5DD005460023B1
:100A980084F83430022384F835302268136823F050
:100AA8000103136023681A6812F0010F0AD0FFF7D8
:100AB8006FFD401B0528F5D920236365032084F8C2
:100AC800350070BD1A68214911406268A068024368
:100AD800E06802432069024360690243A069024357
:100AE800E0690243206A02430A43616A042916D076
:100AF8001A602668756925F00705636A1D43042B8B
:100B080012D075612046FFF755FFE26D3F239340F1
:100B1800836000206065012384F8353070BDE16A88
:100B2800206B01430A43E3E7A36A1D43E36A002BF2
:100B3800E7D02046FFF75CFF0028E2D0402363653A
:100B4800012084F8350070BD012070BD3F8010F091
:100B580038B5856D90F83440012C2CD0012480F8EC
:100B6800344090F83540E4B2012C04D0002380F8DA
:100B78003430022038BD0446022084F835000020B5
:100B880060652046FFF700FFE26D3F239340AB60AE
:100B98002268136843F016031360236C23B122689C
:100BA800136843F0080313602268136843F00103D5
:100BB8001360002038BD022038BD70B50446866D2C
:100BC800FFF7E6FC94F83530DBB2022B06D0802321
:100BD8006365002384F83430012070BD054622681F
:100BE800136823F0160313602268536923F0800307
:100BF8005361236CE3B12268136823F00803136080
:100C08002268136823F00103136023681B6813F03C
:100C1800010F11D0FFF7BCFC401B0528F5D9202394
:100C28006365002384F83430032084F8350070BDF0
:100C3800A36C002BDFD1E3E7E26D3F239340B36061
:100C4800002084F83400012384F8353070BD00009A
:100C5800F0B583B0044600230193724B1D68724BB4
:100C6800A3FB0535AD0A876D3E68C26D0823934026
:100C78001E4210D003681A6812F0040F0BD01A68CD
:100C880022F004021A60C26D08239340BB60436DD2
:100C980043F001034365E26D012393401E4209D0EE
:100CA8002268526912F0800F04D0BB60636D43F074
:100CB80002036365E26D042393401E4209D0226853
:100CC800126812F0020F04D0BB60636D43F0040396
:100CD8006365E26D102393401E4224D02268126897
:100CE80012F0080F1FD0BB6023681A6812F4802F17
:100CF8000DD01B6813F4002F04D1236C9BB1204640
:100D0800984710E0A36C73B1204698470BE01A6827
:100D180012F4807F03D11A6822F008021A60236C4B
:100D28000BB120469847E26D202393401E4255D0D0
:100D38002268126812F0100F50D0BB6094F835305A
:100D4800DBB2052B0ED023681A6812F4802F33D03B
:100D58001B6813F4002F2AD1636C002B3ED0204669
:100D680098473BE02268136823F016031360226853
:100D7800536923F080035361236CA3B1226813687D
:100D880023F008031360E26D3F239340BB60002308
:100D980084F83430012384F83530236D002B3FD09C
:100DA800204698473CE0A36C002BE7D1EBE7E36BC8
:100DB800A3B12046984711E01A6812F4807F09D140
:100DC8001A6822F010021A60002384F834300123D4
:100DD80084F83530E36B0BB120469847636DFBB15F
:100DE800636D13F0010F17D0052384F8353022689E
:100DF800136823F001031360019B013301939D42A3
:100E080004D323681B6813F0010FF5D1002384F87D
:100E18003430012384F83530E36C0BB12046984711
:100E280003B0F0BD08000020B5814E1B00230F2B36
:100E380000F2DF80F0B583B050E04FEAD30C0CF13C
:100E4800080C50F82C5003F0070E4FEA8E0E0F26B0
:100E580006FA0EF625EA06050E6906FA0EF6354379
:100E680040F82C506FE0072600E0002606FA0EF640
:100E7800354302325F4E46F822505F4A1568E24316
:100E880005EA02064F6817F4803F01D044EA0506D8
:100E9800594D2E606D6802EA05064F6817F4003F49
:100EA80001D044EA0506544D6E60AD6802EA0506B5
:100EB8004F6817F4801F01D044EA05064E4DAE6016
:100EC800ED682A404E6816F4001F01D044EA050276
:100ED800494CE26001330F2B00F2898001229A40CD
:100EE8000C681440A242F5D14D686E1E012E03D93C
:100EF800112D01D0122D15D185684FEA430E032715
:100F080007FA0EF725EA0705CE6806FA0EF6354306
:100F18008560456825EA02024D68C5F300159D40C5
:100F28002A434260C6685F000322BA40D243164093
:100F38008D68BD402E43C6604D68022D3FF47DAFDD
:100F4800122D3FF47AAF05682A404D6805F0030575
:100F5800BD402A4302604A6812F0805FBAD000227E
:100F68000192264A556C45F480455564526C02F44A
:100F780080420192019A9A08961C1E4D55F82650F7
:100F880003F003064FEA860E0F2606FA0EF625EA48
:100F980006051B4FB8423FF468AF1A4EB0421AD04C
:100FA80006F58066B04218D006F58066B04216D0C5
:100FB80006F58066B04214D006F58066B04212D0BD
:100FC80006F58066B04210D006F58066B0423FF460
:100FD8004AAF08264AE7012648E7022646E70326DD
:100FE80044E7042642E7052640E706263EE703B025
:100FF800F0BD704700380140003C01400038024015
:101008000000024000040240002800F0C880F8B543
:10101800044690F83D30002B75D0242384F83D30E9
:101028002268136823F0010313602268136843F4ED
:10103800004313602268136823F40043136000F030
:10104800BBFB6268584B9A4262D8584B98428CBF97
:1010580000230123002B40F0A480554BA3FB002361
:101068009A0C21684B6823F03F0313434B602568B3
:10107800296A21F03F0166684B4B9E424ED8531CAB
:101088000B432B622268D16921F44F4121F0FF0103
:101098006368454DAB424BD801385B00B0FBF3F3B6
:1010A8000133C3F30B03042B38BF04230B43D36171
:1010B80021680B6823F0C003E269206A02431343E6
:1010C8000B6021688B6823F4034323F0FF03226934
:1010D800E068024313438B602168CB6823F0FF0369
:1010E8006269A06902431343CB602268136843F026
:1010F8000103136000202064202384F83D3020631E
:1011080084F83E00F8BD80F83C3001F0B7FA84E777
:10111800284B98428CBF002301239BE74FF496731A
:1011280003FB02F3244AA2FB03239B090133A7E72D
:10113800A668BEB9451E03EB4307B5FBF7F50135B5
:10114800C5F30B05B5FA85F56D0935BBC6B9013888
:1011580003EB4303B0FBF3F30133C3F30B0343F493
:101168000043A3E7451E03EB830707EB8707B5FB9F
:10117800F7F50135C5F30B05B5FA85F56D09E4E713
:10118800013803EB830303EB8303B0FBF3F3013371
:10119800C3F30B0343F4404388E7012386E70120A8
:1011A80070470120F8BD00BFA08601007F841E00A3
:1011B80083DE1B43FF083D00D34D6210002800F07A
:1011C800E48170B582B00446036813F0010F3BD088
:1011D800A74B9B6803F00C03042B2CD0A44B9B68F3
:1011E80003F00C03082B21D06368B3F5803F4FD080
:1011F800B3F5A02F52D09E4B1A6822F480321A60A1
:101208001A6822F480221A606368002B50D0FFF716
:10121800BFF90546964B1B6813F4003F14D1FFF73E
:10122800B7F9401B6428F5D90320B3E1904B5B68FC
:1012380013F4800FD8D08E4B1B6813F4003F03D0F3
:101248006368002B00F0A381236813F0020F55D0C8
:10125800874B9B6813F00C0F3ED0854B9B6803F0BF
:101268000C03082B33D0E368002B68D00122814B94
:101278001A60FFF78DF905467D4B1B6813F0020FC6
:1012880054D1FFF785F9401B0228F5D9032081E1E5
:10129800774A136843F480331360B5E7744B1A68D0
:1012A80042F480221A601A6842F480321A60ABE76E
:1012B800FFF76EF905466E4B1B6813F4003FC3D069
:1012C800FFF766F9401B6428F5D9032062E1684BF3
:1012D8005B6813F4800FC6D1654B1B6813F0020FCF
:1012E80004D0E368012B01D0012053E1604A136860
:1012F80023F0F803216943EAC1031360236813F05C
:10130800080F40D0636963B301225B4B1A60FFF793
:101318003FF90546564B5B6F13F0020F33D1FFF7C9
:1013280037F9401B0228F5D9032033E1504A1368E6
:1013380023F0F803216943EAC1031360DEE70022C2
:101348004C4B1A60FFF724F90546494B1B6813F00C
:10135800020FD3D0FFF71CF9401B0228F5D9032050
:1013680018E10022444B1A60FFF712F90546404B7A
:101378005B6F13F0020F06D0FFF70AF9401B022833
:10138800F5D9032006E1236813F0040F79D0384B10
:101398001B6C13F0805F33D100230193344B1A6C1C
:1013A80042F080521A641B6C03F080530193019B36
:1013B8000125324B1B6813F4807F23D0A368012BCF
:1013C80034D0052B38D02A4B1A6F22F001021A6745
:1013D8001A6F22F004021A67A368002B36D0FFF7B1
:1013E800D7F80646224B1B6F13F0020F48D1FFF7C0
:1013F800CFF8801B41F288339842F3D90320C9E023
:101408000025D6E71D4A136843F480731360FFF77D
:10141800BFF80646194B1B6813F4807FCED1FFF73F
:10142800B7F8801B0228F5D90320B3E0104A136FE0
:1014380043F001031367CFE70D4B1A6F42F0040224
:101448001A671A6F42F001021A67C5E7FFF7A0F89A
:101458000646074B1B6F13F0020F11D0FFF798F8E1
:10146800801B41F288339842F3D9032092E000BFF1
:101478000038024000004742800E4742007000409A
:10148800EDB9A369002B00F08480454A926802F008
:101498000C02082A51D0022B17D00022414B1A60A7
:1014A800FFF776F804463E4B1B6813F0007F42D0E6
:1014B800FFF76EF8001B0228F5D903206AE0384AC6
:1014C800136C23F080531364DBE70022354B1A605A
:1014D800FFF75EF80546324B1B6813F0007F06D015
:1014E800FFF756F8401B0228F5D9032052E0E369BC
:1014F800226A1343626A43EA8213A26A5208013AD3
:1015080043EA0243E26A43EA0263254A536001223E
:10151800244B1A60FFF73CF80446214B1B6813F074
:10152800007F06D1FFF734F8001B0228F5D9032005
:1015380030E000202EE000202CE0012B2CD0184BAE
:101548005B6803F48001E269914201D0012021E047
:1015580003F03F02216A8A4201D001201AE0616A41
:1015680047F6C0721A408A4201D0012012E003F403
:101578004032A16A8A4201D001200BE003F0706377
:10158800E26A93420AD0012004E00120704701205A
:1015980000E0002002B070BD0120FBE70020F9E761
:1015A8000038024060004742F8B5254B9B6803F0BD
:1015B8000C03042B41D0082B01D02248F8BD204B46
:1015C8005A6802F03F025B6813F4800F12D01C4B7C
:1015D8005968C1F3881100231B48A1FB0001FEF7DD
:1015E80005FE174B5B68C3F3014301335B00B0FB97
:1015F800F3F0F8BD124B5B68C3F388131E4600274F
:101608005C010025E41A65EB0705A90141EA94612C
:10161800A001001B61EB0501CB0043EA5073C40035
:10162800A01943EB07018B0243EA9053840220463A
:1016380019460023FEF7DAFDD3E70348F8BD00BFDB
:10164800003802400024F40040787D01002800F0B2
:101658009E8070B50446504B1B6803F00F038B4205
:1016680009D2CBB24C4A1370136803F00F039942A6
:1016780001D0012070BD236813F0020F17D013F0BA
:10168800040F04D0454A936843F4E05393602368F9
:1016980013F0080F04D0414A936843F46043936001
:1016A8003E4A936823F0F003A068034393600D4615
:1016B800236813F0010F32D06368012B21D09A1EE2
:1016C800012A25D9354A126812F0020F61D0334930
:1016D8008A6822F0030213438B60FEF759FF06461F
:1016E8002E4B9B6803F00C036268B3EB820F16D095
:1016F800FEF74EFF801B41F288339842F0D9032051
:1017080070BD264A126812F4003FE0D1012070BD76
:10171800224A126812F0007FD9D1012070BD1E4BF9
:101728001B6803F00F039D4209D2EAB21A4B1A70E4
:101738001B6803F00F039D4201D0012070BD236890
:1017480013F0040F06D0154A936823F4E053E168B8
:101758000B439360236813F0080F07D00F4A936870
:1017680023F46043216943EAC1039360FFF71CFF38
:101778000A4B9B68C3F30313094AD35CD840094B4F
:101788001860094B1868FEF7B9FE002070BD0120EB
:101798007047012070BD00BF003C02400038024085
:1017A800002C00080800002004000020014B1868E5
:1017B800704700BF0800002008B5FFF7F7FF044B8B
:1017C8009B68C3F38223034AD35CD84008BD00BF9B
:1017D80000380240102C000808B5FFF7E7FF044B5B
:1017E8009B68C3F34233034AD35CD84008BD00BFAB
:1017F80000380240102C000830B4036A23F00103BB
:101808000362036A4468826922F073020D682A43FE
:1018180023F002038D682B43114DA84211D005F522
:101828008065A8420DD00E4DA84211D005F58065FF
:10183800A8420DD0446082614A684263036230BCAA
:10184800704723F00803CD682B4323F00403EAE72D
:1018580024F440744D692C438D692C43EAE700BF9A
:101868000000014030B4036A23F480730362036A02
:101878004468C26922F073020D682A4323F4007396
:101888008D6843EA0523134DA84211D005F58065FC
:10189800A8420DD00F4DA84212D005F58065A84288
:1018A8000ED04460C2614A68C263036230BC7047AC
:1018B80023F40063CD6843EA052323F48063E9E752
:1018C80024F440544D6944EA05148D6944EA05142A
:1018D800E7E700BF0000014030B4036A23F48053F7
:1018E8000362036A4468C26922F4E6420D6842EA68
:1018F800052223F400538D6843EA0533094DA842B5
:101908000AD005F58065A84206D04460C2614A68DD
:101918000264036230BC704724F480444D6944EA91
:101928008514F2E7000001400368314A904212D062
:10193800B0F1804F0FD0A2F57C4290420BD002F557
:101948008062904207D002F58062904203D002F58F
:101958007842904203D123F070034A681343244A23
:1019680090422AD0B0F1804F27D0A2F57C42904215
:1019780023D002F5806290421FD002F58062904227
:101988001BD002F57842904217D002F5705290426F
:1019980013D002F5806290420FD002F58062904227
:1019A8000BD0A2F59832904207D002F5806290429F
:1019B80003D002F58062904203D123F44073CA68D1
:1019C800134323F080034A69134303608B68C3629F
:1019D8000B688362064B984206D003F580639842F1
:1019E80002D00123436170470B690363F9E700BF25
:1019F80000000140A8B110B5044690F83D305BB135
:101A0800022384F83D30211D2068FFF78DFF012354
:101A180084F83D30002010BD80F83C3000F068FEAE
:101A2800EEE701207047000030B4036A23F010038A
:101A38000362036A4468826922F4E6420D6842EA56
:101A4800052223F020038D6843EA0513124DA842AE
:101A580011D005F58065A8420DD00F4DA84212D0CF
:101A680005F58065A8420ED0446082614A688263A9
:101A7800036230BC704723F08003CD6843EA051346
:101A880023F04003E9E724F440644D6944EA8504FF
:101A98008D6944EA8504E7E70000014038B590F80D
:101AA8003C30012B66D00D460446012380F83C30BB
:101AB800022380F83D300C2A1AD8DFE802F0071913
:101AC8001919201919193419191947000068FFF74D
:101AD80093FE2268936943F008039361226893692F
:101AE80023F0040393612268936929690B43936186
:101AF800012384F83D30002084F83C0038BD00689C
:101B0800FFF792FF2268936943F4006393612268A8
:101B1800936923F48063936122689369296943EA8E
:101B280001239361E4E70068FFF79CFE2268D3690C
:101B380043F00803D3612268D36923F00403D36117
:101B48002268D36929690B43D361D1E70068FFF79D
:101B5800C3FE2268D36943F40063D3612268D36962
:101B680023F48063D3612268D369296943EA012396
:101B7800D361BDE7022038BD90F83C30012B3BD043
:101B880030B4012380F83C30022380F83D300468EB
:101B98006368A26823F070030D682B4363600368D1
:101BA800164CA3421AD0B3F1804F17D0A4F57C4449
:101BB800A34213D004F58064A3420FD004F58064D7
:101BC800A3420BD004F57844A34207D004F570541F
:101BD800A34203D0A4F59434A34204D122F0800296
:101BE80049680A439A60012380F83D30002380F851
:101BF8003C30184630BC7047022070470000014056
:101C080090F83C30012B22D0012380F83C30CB687F
:101C180023F440738A68134323F480634A681343A8
:101C280023F400630A68134323F480530A691343B7
:101C380023F400534A69134323F48043CA691343C6
:101C480002685364002380F83C301846704702202D
:101C580070470268D36823F0C003D360202380F85C
:101C6800393070470268D36823F49073D3600268F0
:101C7800536923F001035361202380F83A307047F9
:101C8800F8B504460268136923F44053C1680B434E
:101C9800136183680269134342691343C26913439A
:101CA8000168CA6822F4164222F00C021343CB6082
:101CB8000268536923F4407381690B435361C36914
:101CC800B3F5004F34D00368604A934200F0928025
:101CD80002F58062934200F08D80FFF76DFD256864
:101CE8000021061841EB010736184F41FB0043EA73
:101CF8005673F20016461F4663689A009B0F8019B8
:101D08007941FEF773FA524CA4FB00325109642260
:101D180002FB110213013233A4FB03235B0903F016
:101D2800F00202EB011203F00F031344AB60F8BD9D
:101D38000368464A934230D002F5806293422CD021
:101D4800FFF73AFD25680021061841EB0107361810
:101D58004F41FB0043EA5673F20016461F4662687D
:101D6800002392185B4180197941FEF73FFA384CFD
:101D7800A4FB00325109642202FB1102D300323362
:101D8800A4FB03235B095A0002F4F87202EB011268
:101D980003F007031344AB60F8BDFFF71DFD25688A
:101DA8000021061841EB010736184F41FB0043EAB2
:101DB8005673F20016461F466268002392185B416C
:101DC80080197941FEF712FA214CA4FB003251091F
:101DD800642202FB1102D3003233A4FB03235B0904
:101DE8005A0002F4F87202EB011203F007031344DD
:101DF800AB60F8BDFFF7F0FC25680021061841EB41
:101E0800010736184F41FB0043EA5673F2001646A5
:101E18001F4663689A009B0F80197941FEF7E6F91F
:101E28000B4CA4FB00325109642202FB110213017E
:101E38003233A4FB03235B0903F0F00202EB011227
:101E480003F00F031344AB60F8BD00BF001001405E
:101E58001F85EB5158B310B5044690F839300BB3D1
:101E6800242384F839302268D36823F40053D360DC
:101E78002046FFF705FF2268136923F49043136196
:101E88002268536923F02A0353612268D36843F414
:101E98000053D3600020E063202384F8393084F8AD
:101EA8003A3010BD80F8383000F068FCD8E70120DF
:101EB8007047000038B590F83940E4B2202C01D0C2
:101EC800022038BD002931D0002A31D090F83830AE
:101ED800012B01D1022038BD13460446012280F8A7
:101EE800382001628384C3840025C563212280F8D9
:101EF8003920026B0F48D063226B0F481064226BA5
:101F08000E48D064226B156522680432206BFEF7F8
:101F18001FFE23686FF040021A6084F83850226868
:101F2800536943F080035361284638BD012038BD0A
:101F3800012038BD3D2100086F210008C721000895
:101F480030B583B090F83A40E4B2202C02D0022099
:101F580003B030BD00293DD0002A3DD090F838307C
:101F6800012B01D10220F3E713460A46044601215A
:101F780080F83810826283850025C563222180F8A5
:101F88003A10416B1548C863616B15480864616B6A
:101F98001448C864616B0D6521680431606BFEF7F5
:101FA800D7FD019523681A6801925A680192019A2F
:101FB80084F83850DA6842F48072DA60226853692B
:101FC80043F0010353612268536943F040035361AE
:101FD8002846BDE70120BBE70120B9E77B210008BF
:101FE800BB210008C721000890F83830012B31D0F8
:101FF800012380F8383001684A6902F0800290F8BD
:102008003930DBB2212B0DD001684A6902F0400259
:1020180090F83A30DBB2222B0BD0002380F838300E
:1020280018467047002AEFD04B6923F080034B61B4
:10203800EAE7002AF1D0CB6823F48073CB6002680A
:10204800536923F0010353610268536923F0400385
:102058005361E2E70220704790F83830012B34D002
:10206800012380F8383090F83930DBB2212B09D0C1
:1020780090F83A30DBB2222B0AD0002380F83830AF
:10208800184670470268536943F080035361EFE7CD
:1020980082B00023019303681A6801925A6801927A
:1020A800019ADA6842F48072DA600268536943F090
:1020B800010353610268536943F0400353610023ED
:1020C80080F83830184602B070470220704710B5C3
:1020D800044601684A6990F83930DBB2212B0AD0EE
:1020E80021684A6902F0400294F83A30DBB2222BA8
:1020F80011D0002010BD02F08002002AF0D04B69F8
:1021080023F080034B61006B08B1FEF756FD2046B3
:10211800FFF79FFDE4E7002AEBD04B6923F040036B
:102128004B61606B08B1FEF748FD2046FFF79AFD4A
:10213800DFE7704708B5836B0268126812F4807F86
:102148000CD10022DA8419684A6922F080024A61B7
:102158001A68D36843F04003D36008BD1846FFF7F8
:10216800E8FF08BD704708B5806BFFF7FBFF08BDA7
:10217800704708B5836B0268126812F4807F13D128
:102188000022DA851968CA6822F48072CA60196860
:102198004A6922F001024A6119684A6922F040023C
:1021A8004A61202283F83A201846FFF7E1FF08BD6C
:1021B800704708B5806BFFF7FBFF08BD704710B587
:1021C800846B23685A6994F83930DBB2212B10D01C
:1021D80023685A6902F0400294F83A30DBB2222BA5
:1021E80011D0E36B43F01003E3632046FFF7E6FFEB
:1021F80010BD02F08002002AEAD00023E3842046C2
:10220800FFF727FDE4E7002AEBD00023E38520460B
:10221800FFF728FDE5E70160704710B5044608465A
:1022280061660A68D36843F0805343F01003D360B3
:1022380064222146FFF784FE204610BD08B5406E93
:10224800FFF738FE08B9012008BD002008BD436E1D
:102258001B681A6812F0100F02D05B6801207047E3
:10226800002070470023632B03D80022C254013397
:10227800F9E77047F8B504460E461546FFF7E7FF3D
:10228800074608B93846F8BD606EFFF7ADFE606EC8
:10229800436B1B685B68D3F1640317D0AB4215D25C
:1022A8000023AB4203DAE25CF2540133F9E7606ED3
:1022B800FFF7D2FE606EFFF70AFF2046FFF7D2FF56
:1022C80064222146606EFFF73BFEDBE7FFF7C4FEA2
:1022D8000027D7E782B0002100910B4B1A6B42F020
:1022E80001021A631A6B02F001020092009A01912E
:1022F8001A6B42F002021A631B6B03F0020301938C
:10230800019B02B0704700BF0038024010B582B090
:10231800002401940D4B1A6B42F480021A631B6B64
:1023280003F480030193019B224621463A20FEF7DD
:10233800D5FA3A20FEF704FB224621464620FEF74E
:10234800CDFA4620FEF7FCFA02B010BD0038024074
:1023580008B50948094B0360094B436000238360B3
:10236800C3604FF48042026143618361C3610362C9
:10237800FEF74AFE08BD00BF8C0000200054004054
:10238800A086010008B50948094B43654FF4E133BD
:1023980083650023C365036643660C228266C366B1
:1023A80003675430FFF756FD08BD00BF8C000020BE
:1023B80000100140F0B585B0002500950195029503
:1023C8000395184C184BC4F89430C4F89850C4F8C6
:1023D8009C500126C4F8A46084F8AC5084F8B4502A
:1023E800C4F8C050114BC4F8BC30C4F8A050022740
:1023F800C4F8B07084F8C450C4F8A8609434204677
:10240800FEF766F900950196029569462046FEF7A3
:102418008BF90096019769462046FEF785F905B0C5
:10242800F0BD00BF8C000020002001400100000F1B
:1024380030B593B000241094119409940A940B9425
:102448000C940D940E940F942022214601A800F0BC
:10245800EBFA1C4D1C4BC5F8DC30C5F8E040C5F85C
:10246800E440C5F8E840C5F8EC40C5F8F040C5F8C8
:10247800F440DC352846FFF7BDFA1094119410A9F2
:102488002846FFF779FB602309930A940B940C9470
:102498000D940E940F94224609A92846FFF7FEFAD8
:1024A800019402940394049405944FF40053069302
:1024B800089401A92846FFF7A3FB284600F030F945
:1024C80013B030BD8C0000200000014010B594B05E
:1024D8003022002108A800F0A7FA002403940494ED
:1024E8000594069407940194154B1A6C42F0805297
:1024F8001A641B6C03F080530193019B0294114BE7
:102508001A6842F480421A601B6803F480430293FD
:10251800029B0223089301230B9310230C930E9420
:1025280008A8FEF74BFE0F23039304940594069422
:102538000794214603A8FFF789F814B010BD00BF1F
:10254800003802400070004008B5FDF7FBFFFFF7B8
:10255800BDFFFFF7BFFEFFF7D9FEFFF7F9FEFFF754
:1025680011FFFFF727FFFFF763FF682000F009FA64
:1025780005460F4C04F15401FFF74FFEC4F81C51F7
:10258800042000F0FEF905462146FFF744FEC4F892
:1025980020510849084800F001FB0028F9D007221B
:1025A8000649034BD3F81C01FFF748FEF1E700BFCB
:1025B8008C000020182C0008B0010020202C0008F6
:1025C80008B5044B642203F59271D3F81C01FFF798
:1025D80051FE08BD8C0000207047000082B0002129
:1025E80000910B4B5A6C42F480425A645A6C02F4C4
:1025F80080420092009A01911A6C42F080521A644B
:102608001B6C03F080530193019B02B0704700BF1D
:102618000038024000B589B0002303930493059362
:1026280006930793026803F1804303F590339A42B7
:1026380002D009B05DF804FB0021019103F58C3349
:102648005A6C42F480725A645A6C02F48072019295
:10265800019A02911A6B42F001021A631B6B03F094
:1026680001030293029B03230393049303A90248E3
:10267800FEF7DCFBDDE700BF0000024030B589B0A3
:102688000023039304930593069307930268154B5D
:102698009A4201D009B030BD00250195124C236B38
:1026A80043F002032363236B03F002030193019BAE
:1026B800C023039312230493012305930323069352
:1026C8000423079303A90948FEF7B0FB0295236C7E
:1026D80043F400132364236C03F400130293029B56
:1026E800D8E700BF00540040003802400004024010
:1026F8000268094B9A4200D0704782B000230193C8
:10270800064B5A6C42F001025A645B6C03F00103F9
:102718000193019B02B0EFE700000140003802403E
:1027280000B587B0002301930293039304930593A4
:1027380002680F4B9A4202D007B05DF804FB0023F1
:1027480000930C4B1A6B42F001021A631B6B03F0E7
:1027580001030093009B4FF48073019302230293BB
:102768000123059301A90448FEF760FBE4E700BFD5
:1027780000000140003802400000024030B589B036
:10278800002303930493059306930793026803F1C8
:10279800804303F588339A4201D009B030BD04461E
:1027A8000025019503F594335A6C42F010025A64DF
:1027B8005A6C02F010020192019A02951A6B42F0CB
:1027C80001021A631B6B03F001030293029B4FF48F
:1027D800C0630393022304930323069307230793F9
:1027E80003A92048FEF722FB1F48204B03604FF047
:1027F800006343608560C5604FF480630361456191
:102808008561C56105624562FEF73AF918BB164B4A
:1028180063639C631648174B03604FF00063436083
:10282800402383600023C3604FF4806202614361E8
:102838008361C36103624362FEF722F970B90C4BEE
:1028480023639C63002211462520FEF747F82520C4
:10285800FEF776F8A1E7FFF7BFFED8E7FFF7BCFE63
:10286800EDE700BF0000024074020020406402400F
:1028780014020020B86402407047FEE7FEE7FEE756
:10288800FEE770477047704708B5FDF775FE08BD4D
:1028980008B5FFF795FE08BD08B50248FEF7D8F958
:1028A80008BD00BF7402002008B50248FEF7D0F941
:1028B80008BD00BF140200200120704708B500F0D1
:1028C80081F8162303604FF0FF3008BD08B54FF0BC
:1028D800FF31FFF7F3FFFEE708B503460B4A12681E
:1028E80042B10A4A106803446A46934206D8074A26
:1028F800136008BD0649054A1160F2E700F062F866
:102908000C2303604FF0FF3008BD00BFD402002045
:10291800F0020020054BD3F8882042F47002C3F877
:1029280088204FF000629A60704700BF00ED00E019
:10293800DFF834D0002103E00C4B5B5843500431DE
:102948000B480C4B42189A42F6D30B4A02E000237C
:1029580042F8043B094B9A42F9D3FFF7DBFF00F03A
:1029680037F8FFF7F1FD704700000220382C000807
:10297800000000207000002070000020F0020020FD
:10298800FEE710B5002814BF04460124204600F0D5
:1029980043F830B900F006F808B900F00BF88047A2
:1029A800F4E710BD024B1868BFF35B8F704700BF98
:1029B800DC02002008B5062000F0D4F80120FFF75B
:1029C80085FF0000014B1868704700BF0C0000200D
:1029D80070B50D4E0D4CA41BA4100025A54209D1BD
:1029E8000B4E0C4C00F0F8F8A41BA4100025A542CF
:1029F80005D170BD56F8253098470135EEE756F8F1
:102A0800253098470135F2E7302C0008302C0008B3
:102A1800302C0008342C0008024B0146186800F0DE
:102A28000BB800BF0C00002002440346934200D1BB
:102A3800704703F8011BF9E770B5CD1C25F00305B5
:102A480008350C2D38BF0C25002D064601DBA942A0
:102A580003D90C233360002070BD00F0BAF8234A74
:102A68001468214691B9224C23681BB9304600F0FE
:102A780041F820602946304600F03CF8431C26D136
:102A88000C233360304600F0A5F8E4E70B685B1BC5
:102A98001AD40B2B0FD90B60CD50CC18304600F050
:102AA80099F804F10B00231D20F00700C31A1BD06E
:102AB8005A42E25070BD8C420DBF63684B68636038
:102AC800136018BF0C46E9E70C464968CAE7C41CFE
:102AD80024F00304A04205D0211A304600F00AF879
:102AE8000130CDD02560D9E770BD00BFE0020020DD
:102AF800E402002038B5064C00230546084623604A
:102B0800FFF7EAFE431C02D1236803B12B6038BDEE
:102B1800EC0200201F2938B504460D4604D91623B7
:102B280003604FF0FF3038BD426C12B152F82130CB
:102B38004BB9204600F030F82A4601462046BDE849
:102B4800384000F017B8012B0AD0591C03D11623BE
:102B58000360012038BD002442F8254028469847E4
:102B6800002038BD024B01461868FFF7D3BF00BFED
:102B78000C00002038B5074C0023054608461146CE
:102B88002360FFF79BFE431C02D1236803B12B602F
:102B980038BD00BFEC020020FFF78EBEF0B5037809
:102BA80033B1034618465E1C1B7833B91846F0BD8E
:102BB8000B78002B18BF0020F0BD4D1E441E15F8E1
:102BC800012F002AF3D014F8017F97423346F6D03C
:102BD800E8E7704770470000F8B500BFF8BC08BCCC
:102BE8009E467047F8B500BFF8BC08BC9E467047C3
:102BF8000006101600061016000000000000000075
:102C0800010203040607080900000000010203048A
:102C180068656C6C6F00000068656C6C6F0D0A006D
:082C2800FCD5FF7F0100000054
:042C3000AD010008EA
:042C3400890100080A
:102C380001000000100000000024F4001000002033
:102C4800000000000000000000000000000000007C
:102C5800000000000000000000000000000000006C
:102C6800000000000000000000000000000000005C
:102C7800000000000000000000000000000000004C
:102C8800000000000000000000000000000000003C
:102C9800000000000000000000000000000000002C
:04000005080029398D
:00000001FF
